:10020F00D3EF9400EE9400400F7D197C64DCFEDD8B
:08021F00FAEF1F70EB1E80E8EE
:0102270022B4
:1001B200E4F50BF50AF509F508F50FF50EF50DF561
:1001C2000CE4FFFE7D207C41AB0FAA0EA90DA80C0A
:1001D2001200FB5036AF0BAE0AAD09AC08E4FBFAD5
:1001E2007980783F12000A8F0B8E0A8D098C08AF36
:1001F2000FAE0EAD0DAC0CE4FBFA7980783F120025
:0D0202000A8F0F8E0E8D0D8C0C80B680FEC5
:1000030002019DE86480F8E933E83360110460F08D
:10001300ED33EC337009E8FCE9FDEAFEEBFF220463
:1000230060DED3EB9FEA9EE99DE8C2E78CF0C2F75E
:1000330095F0400CE8CCF8E9CDF9EACEFAEBCFFB2A
:1000430012016885D0F05804700320D5B3E804701A
:10005300075002B2D50201A792D5EC0460F7E4CCB5
:10006300C0E0C398F8603B94186008400DD0E0FBF3
:1000730002017FE4FBFAC9FC8028E830E406E4C906
:10008300FBE4CAFCE830E305E4C9CACBFCE8540747
:100093006010F8C3E913F9EA13FAEB13FBEC13FC52
:1000A300D8F130F52FC3E49CFCEF9BFFEE9AFEEDF5
:1000B30099FDD0E0FBEF4E4D4C701222DB030201A1
:1000C300A4EC2CFCEF33FFEE33FEED33FDED30E714
:1000D300EB02017FEF2BFFEE3AFEED39FDD0E0FBA3
:1000E30050130BBB00030201A7ED13FDEE13FEEF4C
:0800F30013FFEC13FC02017F76
:1000FB0074F8CC6480CCC86480C8F582046043C3B8
:10010B00EB9FF5F0EA9E42F0E99D42F0E89C45F04A
:10011B0060305018E5825FFFE582F42B5582FB506F
:10012B00210ABA001D09B90019088016E5825BFB8C
:10013B00E582F42F5582FF50090EBE00050DBD0060
:10014B00010CC3EB9FF5F0EA9E42F0E99D42F0E80B
:0D015B009C45F06007CC4820E701B3EC2282
:10016800E9D2E7C933E833F892D5EDD2E7CD33ECDD
:0701780033FC5002B2D52256
:10017F00EC30E7100FBF000C0EBE00080DBD0004E1
:10018F000BEB6014A2D5EB13FCED92E7FD2274FF8D
:10019F00FCFDFEFF22E480F8A2D574FF13FC7D80E6
:0301AF00E480EFFA
:03000000020228D1
:0C022800787FE4F6D8FD75810F0201B26A
:00000001FF
