:1013410032303133C4EAC8ABB9FAB4F3D1A7C9FA20
:101351002020B5E7D7D3C9E8BCC6BEBAC8FC202057
:1013610020202020CEE5D2D8B4F3D1A72020202000
:10137100D0A3C4DAD1A1B0CED7F7C6B7D5B9CABE0A
:101381002020C0E0D0CDA3BABFD8D6C6C0E020206F
:10139100D7F7C6B73031A3BAD7D4D3C9B0DA202032
:1013A100B3C9D4B1A3BA2020CDF5BBAAEABD202090
:1013B100C1F5BCCEBAC02020CCC6EABB202020207B
:1013C100B9A6C4DCD1A1D4F1A3BA202020202020C9
:1013D100312ED6DCC6DAB0DAB6AF202020202020AC
:1013E100322ED3B2B1D2CBE6B0DA20202020202099
:1013F100332ED7D4B6AFC3E9B0D02020202020208F
:10140100D7D4D3C9B0DAC6BDB0E5CFB5CDB32020AE
:10141100C8ABC1A6D2D4B8B0D7F6B5BDD7EEBAC362
:10142100C7EBCAD6B6AFB5F7D5FBC6BDB0E5D6C1D9
:10143100CBAEC6BDCEBBD6C3B2A2B0B44120BCFCBC
:10144100C7EBC8B7B6A8C6BDB0E5CAC7B7F1CEAA43
:10145100B4B9D6B1D7B4CCAC202020202020202094
:10146100C8B7C8CFC7EBB0D1C6BDB0E5CDC6B6AF22
:10147100B5BDC4B3BDC7B6C8BAF3B0B44120BCFC56
:10148100B5B1C7B0BDC7B6C84120D6B5A3BA2020F3
:10149100202020202020202020202020202020204B
:1014A100B5B1C7B0BDC7B6C84220D6B5A3BA2020D2
:1014B100202020202020202020202020202020202B
:1014C100C7EBB5F7D5FBBCA4B9E2B1CAC3E9D7BC38
:1014D100B5F7D5FBCDEAB1CFC7EBB0B441202020A1
:1014E10020202020202020202020202020202020FB
:1014F10020202020202020202020202020202020EB
:1015010032303133C4EAC8ABB9FAB4F3D1A7C9FA5E
:101511002020B5E7D7D3C9E8BCC6BEBAC8FC202095
:1015210020202020CEE5D2D8B4F3D1A7202020203E
:10153100D0A3C4DAD1A1B0CED7F7C6B7D5B9CABE48
:1015410032303133C4EAC8ABB9FAB4F3D1A7C9FA1E
:101551002020B5E7D7D3C9E8BCC6BEBAC8FC202055
:1015610020202020CEE5D2D8B4F3D1A720202020FE
:10157100D0A3C4DAD1A1B0CED7F7C6B7D5B9CABE08
:10158100B2C9BCAFBBF9D7BC2E2E2E2E2E2E2020D9
:1015910000312ED6DCC6DAB0DAB6AF20202020200A
:1015A1002000322ED3B2B1D2CBE6B0DA20202020F7
:1015B100202000332ED7D4B6AFC3E9B0D0202020ED
:1015C10020202000B5B1C7B0BDC7B6C8D6B5202010
:1015D1002E2E2E2E00C8ABC1A6D2D4B8B0D7F6B5E8
:1015E100BDD7EEBAC300C8ABC1A6D2D4B8B0D7F646
:1015F100B5BDD7EEBAC300C8ABC1A6D2D4B8B0D777
:08160100F6B5BDD7EEBAC30037
:101E0700071E3030302E30300A022700000225002E
:101E170000041600000000012900010D00022E0039
:101E270000021C0FA0022C0FA0010C00040E0000E2
:101E37000000041200000000021A00C8020A0FA0E6
:041EF2007FE87E0304
:101EF600D3EF9400EE9400400F7D197C6CDCFEDD80
:081F0600FAEF1F70EB1E80E8EA
:011F0E0022B0
:041F0F007F057E00CC
:101F1300D3EF9400EE9400400F7D197C19DCFEDDB5
:081F2300FAEF1F70EB1E80E8CD
:011F2B002293
:081DC4007B647A007D60E4FFFE
:101DCC008F3DA905E4F519F518F517F516F525F568
:101DDC00268A278B28853D29890DF5BCF5BDF5BED6
:101DEC0043A204759DFF7591FFF592E50D4488455E
:0B1DFC0029F5BC000000D2AFD2AD22E0
:10002E008E358F36C3E53694E6E5359402500302DD
:10003E0003C1E5369482E5359403403EE53694A33C
:10004E00E53594035034E536247EFDE53534FCFC6D
:10005E00E412117EE4FBFA79A07841120F5AE4FB08
:10006E00FA79047842121063A804A905AA06AB0710
:10007E00E4FFFE7DA07C41020DDEC3E5369472E501
:10008E00359403406AE5369482E53594035060E575
:10009E0036248EFDE53534FCFCE412117EE4FBFAC9
:1000AE0079A07840120F5AE4FBFA79807841121049
:1000BE0063A804A905AA06AB07E4FFFE7DC87C4130
:1000CE00120E658F118E108D0F8C0E7F267EE47DA5
:1000DE00A37C3EAB11AA10A90FA80E120F5AA804AA
:1000EE00A905AA06AB077F037EF87DAB020621C3E6
:1000FE00E5369462E5359403406AE5369472E5354B
:10010E0094035060E536249EFDE53534FCFCE41284
:10011E00117EE4FBFA79A07840120F5AE4FBFA79CB
:10012E00807841121063A804A905AA06AB07E4FF64
:10013E00FE7DF07C41120E658F118E108D0F8C0E90
:10014E007F777EBE7D9F7C3EAB11AA10A90FA80EB5
:10015E00120F5AA804A905AA06AB077F867E5A7D00
:10016E00AA020621C3E536944DE5359403406AE5AF
:10017E00369462E53594035060E53624B3FDE535DB
:10018E0034FCFCE412117EE4FBFA79A07840120FE5
:10019E005AE4FBFA79A87841121063A804A905AABB
:1001AE0006AB07E4FFFE7D0C7C42120E658F118EAE
:1001BE00108D0F8C0E7F7F7EFB7D9A7C3EAB11AA3D
:1001CE0010A90FA80E120F5AA804A905AA06AB076C
:1001DE007F8A7E1F7DA8020621C3E5369438E53559
:1001EE009403406AE536944DE53594035060E53648
:1001FE0024C8FDE53534FCFCE412117EE4FBFA79EB
:10020E00A07840120F5AE4FBFA79A87841121063D5
:10021E00A804A905AA06AB07E4FFFE7D207C4212C6
:10022E000E658F118E108D0F8C0E7F067E817D9543
:10023E007C3EAB11AA10A90FA80E120F5AA804A942
:10024E0005AA06AB077FCB7E217DA5020621C3E55D
:10025E0036941EE5359403406AE5369438E53594B8
:10026E00035060E53624E2FDE53534FCFCE4121162
:10027E007EE4FBFA79A07840120F5AE4FBFA79D0AB
:10028E007841121063A804A905AA06AB07E4FFFE85
:10029E007D347C42120E658F118E108D0F8C0E7F69
:1002AE00F27E417D8F7C3EAB11AA10A90FA80E12D3
:1002BE000F5AA804A905AA06AB077FFF7E327DA1BF
:1002CE00020621C3E5369404E5359403406AE5360B
:1002DE00941EE53594035060E53624FCFDE5353477
:1002EE00FCFCE412117EE4FBFA79A07840120F5A5E
:1002FE00E4FBFA79D07841121063A804A905AA0686
:10030E00AB07E4FFFE7D487C42120E658F118E1006
:10031E008D0F8C0E7FB97EFC7D877C3EAB11AA10B3
:10032E00A90FA80E120F5AA804A905AA06AB077F9B
:10033E00D47E1A7D9C020621C3E53694E6E53594FB
:10034E00025003020DE9E5369404E53594034003AB
:10035E00020DE9E536241AFDE53534FDFCE41211F3
:10036E007EE4FBFA79A07840120F5AE4FBFA79F09A
:10037E007841121063A804A905AA06AB07E4FFFE94
:10038E007D5C7C42120E658F118E108D0F8C0E7F50
:10039E00807E487D7F7C3EAB11AA10A90FA80E125D
:1003AE000F5AA804A905AA06AB077FA37E927D95D6
:1003BE00020621C3E53694FDE5359401500302078C
:1003CE001CE53694E6E5359402400302071CC3E5AE
:1003DE003694C7E5359402406AE53694E6E53594E1
:1003EE00025060E5362439FDE53534FDFCE412118A
:1003FE007EE4FBFA79A07840120F5AE4FBFA79F802
:10040E007841121063A804A905AA06AB07E4FFFE03
:10041E007D707C42120E658F118E108D0F8C0E7FAB
:10042E00FA7EED7D6B7C3EAB11AA10A90FA80E12C1
:10043E000F5AA804A905AA06AB077F8F7E427D8DB1
:10044E00020621C3E53694A8E5359402406AE536E6
:10045E0094C7E53594025060E5362458FDE53534F1
:10046E00FDFCE412117EE4FBFA79A07840120F5ADB
:10047E00E4FBFA79F87841121063A804A905AA06DC
:10048E00AB07E4FFFE7D827C42120E658F118E104B
:10049E008D0F8C0E7F067E817D557C3EAB11AA1092
:1004AE00A90FA80E120F5AA804A905AA06AB077F1A
:1004BE00027EBC7D82020621C3E5369487E5359423
:1004CE0002406AE53694A8E53594025060E536247C
:1004DE0079FDE53534FDFCE412117EE4FBFA79A0DA
:1004EE007840120F5AE4FBFA79047842121063A88E
:1004FE0004A905AA06AB07E4FFFE7D8C7C42120E12
:10050E00658F118E108D0F8C0E7F237E4A7D3B7C66
:10051E003EAB11AA10A90FA80E120F5AA804A905D6
:10052E00AA06AB077F9B7EE67D6A020621C3E536EF
:10053E009465E53594024069E5369487E535940275
:10054E00505FE536249BFDE53534FDFCE412117E4B
:10055E00E4FBFA79A07840120F5AE4FBFA79087896
:10056E0042121063A804A905AA06AB07E4FFFE7D9C
:10057E00967C42120E658F118E108D0F8C0E7F0899
:10058E007EAC7D1C7C3EAB11AA10A90FA80E120FDB
:10059E005AA804A905AA06AB077F987E6E7D4980EE
:1005AE0072C3E5369441E5359402406CE5369465A8
:1005BE00E53594025062E53624BFFDE53534FDFC89
:1005CE00E412117EE4FBFA79A07840120F5AE4FB94
:1005DE00FA79107842121063A804A905AA06AB078F
:1005EE00E4FFFE7DA07C42120E658F118E108D0FE2
:1005FE008C0E7F8E7E757DF17C3DAB11AA10A90FFE
:10060E00A80E120F5AA804A905AA06AB077FA57E4D
:10061E004E7D1F7C41020716C3E536941DE53594C9
:10062E0002406BE5369441E53594025061E536247F
:10063E00E3FDE53534FDFCE412117EE4FBFA79A00E
:10064E007840120F5AE4FBFA79107842121063A820
:10065E0004A905AA06AB07E4FFFE7DAA7C42120E92
:10066E00658F118E108D0F8C0E7F087EAC7D9C7C5D
:10067E003DAB11AA10A90FA80E120F5AA804A90576
:10068E00AA06AB077FBC7E967DD47C40807AC3E5FC
:10069E003694FDE53594015003020DE9E536941DBF
:1006AE00E53594024003020DE9E5362403FDE535F8
:1006BE0034FEFCE412117EE4FBFA79A07840120FAE
:1006CE005AE4FBFA79087842121063A804A905AA25
:1006DE0006AB07E4FFFE7DB47C42120E658F118ED1
:1006EE00108D0F8C0E7FF77E757DE07C3CAB11AAD2
:1006FE0010A90FA80E120F5AA804A905AA06AB0737
:10070E007F147E3F7D1E7C40120E65020D8EC3E56A
:10071E003694F5E53594005003020ACBE53694FD88
:10072E00E53594014003020ACBC3E53694D8E5358E
:10073E0094014067E53694FDE5359401505DE5364C
:10074E002428FDE53534FEFCE412117EE4FBFA7933
:10075E00A07840120F5AE4FBFA790C78421210631B
:10076E00A804A905AA06AB07E4FFFE7DBE7C4212D3
:10077E000E658F118E108D0F8C0E7F487E507DFC76
:10078E007C3CAB11AA10A90FA80E120F5A7BD67A79
:10079E00C5793178C0120E69020D8EC3E53694B557
:1007AE00E53594014067E53694D8E5359401505D02
:1007BE00E536244BFDE53534FEFCE412117EE4FBF8
:1007CE00FA79A07840120F5AE4FBFA790C784212AB
:1007DE001063A804A905AA06AB07E4FFFE7DC87C3A
:1007EE0042120E658F118E108D0F8C0E7F847E9EA1
:1007FE007DCD7C3DAB11AA10A90FA80E120F5A7B0E
:10080E00E77A1D791678C1120E69020D8EC3E53690
:10081E009492E53594014067E53694B5E53594013B
:10082E00505DE536246EFDE53534FEFCE412117E96
:10083E00E4FBFA79A07840120F5AE4FBFA790C78AF
:10084E0042121063A804A905AA06AB07E4FFFE7DB9
:10085E00D27C42120E658F118E108D0F8C0E7FC8BA
:10086E007E987D3B7C3EAB11AA10A90FA80E120FED
:10087E005A7B8C7A5B798D78C1120E69020D8EC30C
:10088E00E5369471E53594014067E5369492E53589
:10089E009401505DE536248FFDE53534FEFCE412FF
:1008AE00117EE4FBFA79A07840120F5AE4FBFA7934
:1008BE00047842121063A804A905AA06AB07E4FF48
:1008CE00FE7DDC7C42120E658F118E108D0F8C0E0C
:1008DE007FFB7E3A7D907C3EAB11AA10A90FA80E2D
:1008EE00120F5A7B4D7A1579E078C1120E69020DFE
:1008FE008EC3E5369451E53594014066E536947124
:10090E00E5359401505CE53624AFFDE53534FEFC4B
:10091E00E412117EE4FBFA79A07840120F5AE4FB40
:10092E00FAF97842121063A804A905AA06AB07E4E7
:10093E00FFFE7DE67C42120E658F118E108D0F8CA0
:10094E000E7F567E9F7DCB7C3EAB11AA10A90FA8C1
:10095E000E120F5A7BC27A17792378C2120E6902D1
:10096E000D8EC3E5369430E53594014066E5369438
:10097E0051E5359401505CE53624D0FDE53534FE65
:10098E00FCE412117EE4FBFA79A07840120F5AE4CF
:10099E00FBFAF97842121063A804A905AA06AB0760
:1009AE00E4FFFE7DF07C42120E658F118E108D0FCE
:1009BE008C0E7FB57E377D087C3FAB11AA10A90F38
:1009CE00A80E120F5A7BE37AE5796078C2120E698F
:1009DE00020D8EC3E5369411E53594014067E53678
:1009EE009430E5359401505DE53624EFFDE5353460
:1009FE00FEFCE412117EE4FBFA79A07840120F5A45
:100A0E00E4FBFA79F87841121063A804A905AA0646
:100A1E00AB07E4FFFE7DFA7C42120E658F118E103D
:100A2E008D0F8C0E7F177ED97D2E7C3FAB11AA10B9
:100A3E00A90FA80E120F5A7BE27AA9799478C212E6
:100A4E000E69020D8EC3E53694F5E535940050031C
:100A5E00020DE9E5369411E53594014003020DE9E6
:100A6E00E536240BFDE53534FFFCE412117EE4FB84
:100A7E00FA79A07840120F5AE4FBFA79E078411225
:100A8E001063A804A905AA06AB07E4FFFE7D027C4D
:100A9E0043120E658F118E108D0F8C0E7FD57E0931
:100AAE007D587C3FAB11AA10A90FA80E120F5A7BCE
:100ABE00CF7AE679BC78C2120E69020D8EC3E53686
:100ACE009460E53594005003020DE9E53694F5E5A2
:100ADE003594004003020DE9C3E53694DBE5359409
:100AEE00004067E53694F5E5359400505DE5362413
:100AFE0025FDE53534FFFCE412117EE4FBFA79A006
:100B0E007840120F5AE4FBFA79D07841121063A89C
:100B1E0004A905AA06AB07E4FFFE7D077C43120E6F
:100B2E00658F118E108D0F8C0E7F6E7E347D807CC6
:100B3E003FAB11AA10A90FA80E120F5A7BF07AE73D
:100B4E0079E578C2120E69020D8EC3E53694C4E5BE
:100B5E003594004067E53694DBE5359400505DE54D
:100B6E0036243CFDE53534FFFCE412117EE4FBFA3D
:100B7E0079A07840120F5AE4FBFA79B87841121036
:100B8E0063A804A905AA06AB07E4FFFE7D0C7C430F
:100B9E00120E658F118E108D0F8C0E7F107E587D6C
:100BAE00917C3FAB11AA10A90FA80E120F5A7BE32E
:100BBE007A06790578C3120E69020D8EC3E5369456
:100BCE00ADE53594004067E53694C4E535940050A4
:100BDE005DE5362453FDE53534FFFCE412117EE469
:100BEE00FBFA79A07840120F5AE4FBFA79B87841F3
:100BFE00121063A804A905AA06AB07E4FFFE7D1137
:100C0E007C43120E658F118E108D0F8C0E7F1D7E04
:100C1E005A7D9C7C3FAB11AA10A90FA80E120F5A39
:100C2E007BB27A0E791178C3120E69020D8EC3E56E
:100C3E0036949AE53594004067E53694ADE53594E3
:100C4E0000505DE5362466FDE53534FFFCE41211F7
:100C5E007EE4FBFA79A07840120F5AE4FBFA7998F9
:100C6E007841121063A804A905AA06AB07E4FFFE9B
:100C7E007D167C43120E658F118E108D0F8C0E7F9C
:100C8E00B47EC87D9E7C3FAB11AA10A90FA80E1290
:100C9E000F5A7B7D7AD0791378C3120E69020D8EAE
:100CAE00C3E5369488E53594004066E536949AE5BA
:100CBE00359400505CE5362478FDE53534FFFCE4D0
:100CCE0012117EE4FBFA79A07840120F5AE4FBFA77
:100CDE0079907841121063A804A905AA06AB07E41F
:100CEE00FFFE7D1B7C43120E658F118E108D0F8CB7
:100CFE000E7F627E107D987C3FAB11AA10A90FA8C3
:100D0E000E120F5A7BB87AF0790B78C3120E6980E7
:100D1E006FC3E536947BE5359400406EE5369488D6
:100D2E00E53594005064E5362485FDE53534FFFC49
:100D3E00E412117EE4FBFA79A07840120F5AE4FB1C
:100D4E00FA79507841121063A804A905AA06AB07D8
:100D5E00E4FFFE7D207C43120E658F118E108D0FE9
:100D6E008C0E7F337EC47D897C3FAB11AA10A90FF8
:100D7E00A80E120F5A7B4E7A4279F578C2120E697E
:100D8E008F158E148D138C128051C3E5369460E549
:100D9E003594004046E536947BE5359400503CE5AD
:100DAE003624A0FDE53534FFFCE412117EE4FBFA97
:100DBE0079A07841120F5AE4FBFA79D878411210D3
:100DCE0063A804A905AA06AB07E4FFFE7D347C43A5
:100DDE00120E658F118E108D0F8C0EE4FFFE7D347A
:100DEE007C43AB11AA10A90FA80E121100400BE400
:100DFE00F511F510750F34750E43E4FFFEFDFCABD7
:100E0E0011AA10A90FA80E12110060025009E4F5E4
:100E1E0011F510F50FF50EE4FFFE7DB47C42AB1517
:100E2E00AA14A913A812121100400BE4F515F5141B
:100E3E007513B4751242E4FFFEFDFCAB15AA14A99E
:100E4E0013A81212110060025009E4F515F514F5FD
:040E5E0013F5122254
:10160900E4F534F533F532F531C2ADAF2FAE2E1214
:10161900002EE50C60030216B5FFFE7DB47C42ABDB
:1016290011AA10A90FA80E12110060384036E4FF64
:10163900FE7DB47CC2AB11AA10A90FA80E120E69C7
:101649007466FBFAF9783E121063E4FBFAF9784004
:10165900120F5A1211B7E52D2FF51DE52C3EF51C79
:10166900D2818048E4FFFE7DB47C42AB11AA10A967
:101679000FA80E1211005034AB11AA10A90FA80E11
:10168900E4FFFE7DB47C42120E657466FBFAF978BC
:101699003E121063E4FBFAF97840120F5A1211B79F
:1016A900E52D2FF51DE52C3EF51CC281E50C6402E4
:1016B900600302176AFFFE7DB47C42AB11AA10A930
:1016C9000FA80E1211004040AF15AE14AD13AC12A5
:1016D900AB11AA10A90FA80E120E697BCD7A8C79CD
:1016E900B378C2120E697466FBFAF9783E12106378
:1016F900E4FBFAF97840120F5A1211B7E52D2FF5CC
:1017090009E52C3EF508803FAB11AA10A90FA80ED8
:101719007F337E737DB47C42120E65AB15AA14A982
:1017290013A812120E657466FBFAF9783E1210635B
:10173900E4FBFAF97840120F5A1211B7C3E52D9F4D
:10174900F509E52C9EF508E50925E0FFE50833FED6
:10175900C3EF950BF51DEE950AF51C85080A850959
:101769000BE4FFFE7DC87C42AB11AA10A90FA80E9D
:10177900120F5A1211B78F348E338D328C31E47BAC
:10178900107A27F9F81212A1EF2430F51EE47BE84C
:101799007A03F9F8AF34AE33AD32AC311212A1E4A9
:1017A9007B0AFAF9F81212A1EB2430F51FE47B64E5
:1017B900FAF9F8AF34AE33AD32AC311212A1E47B91
:1017C9000AFAF9F81212A1EB2430F520E47B0AFA9F
:1017D900F9F8AF34AE33AD32AC311212A1E47B0A61
:1017E900FAF9F81212A1EB2430F522E47B0AFAF98E
:1017F900F8AF34AE33AD32AC311212A1EB2430F56F
:10180900237B007A00791E7544037F90121CEAE459
:10181900FFFE7DC87C42AB15AA14A913A812120FAA
:101829005A1211B78F348E338D328C31E47B107A92
:1018390027F9F81212A1EF2430F51EE47BE87A03A8
:10184900F9F8AF34AE33AD32AC311212A1E47B0AF0
:10185900FAF9F81212A1EB2430F51FE47B64FAF9C6
:10186900F8AF34AE33AD32AC311212A1E47B0AFACF
:10187900F9F81212A1EB2430F520E47B0AFAF9F801
:10188900AF34AE33AD32AC311212A1E47B0AFAF9AE
:10189900F81212A1EB2430F522E47B0AFAF9F8AF29
:1018A90034AE33AD32AC311212A1EB2430F5237BC7
:0F18B900007A00791E7544037F98121CEAD2ADA5
:0118C80022FD
:101ECF0075A0FFE5A0B4FFFBE5A0B47F037F01225F
:101EDF00E5A0B4BF037F0222E5A0B4DF037F032296
:031EEF007F04224B
:101EA800D282D281D2807BFF7A137941121D3912F6
:101EB8001EF27BFF7A137981121D39121EF27BFF05
:071EC8007A1379C1021D39F4
:101C91007F01121F567BFF7A1579927544087F9058
:101CA100121CEA7FF47E01121EF67F01121F567B81
:101CB100FF7A147901121D39E5A0B4EFFBC282D27B
:101CC100817BC8121F0FB280121F0FB280DBF47B21
:101CD100FF7A147941121D39121EF2E5A0B4EFFB0F
:091CE100C282121F0FB28080F9CB
:101B0700753C017F01121F567BFF7A1579A3754437
:101B1700087F88121CEA7FF47E01121EF67F0112ED
:101B27001F567BFF7A147901121D3975A0FFE5A0B6
:101B3700B4F3FB121EF2D284C282D281852C2A858D
:101B47002D2B7BFF7A147981121D39758CFE758ACE
:101B57000C758901121DC47F287E00121EF6D2AFB4
:101B6700D2A9D28CD2B9E53C60357F007EE07D2BCF
:101B77007C46AB11AA10A90FA80E12110050177FAF
:101B8700007EC07DDA7C45AB11AA10A90FA80E1202
:101B97001100600250D0D2A9D28CE4F53C80C780F6
:011BA700FE3F
:101A5E007F01121F567BFF7A1579B47544087F9863
:101A6E00121CEA7FF47E01121EF67F01121F567BB6
:101A7E00FF7A1479C1121D39E5A0B4EFFB7F147EF5
:101A8E0000121EF6750C02C282D281852C2A852D7B
:101A9E002B7BFF7A147981121D39AE1AAF1BAB075F
:101AAE00AA06E4C39BFFE49AFE74019400FDE4943D
:101ABE0000FCE4FB7A01F9F8121D808F8DAE1AAF8F
:101ACE001BAB07AA06E4C39BFFE49AFE74019400C5
:101ADE00FDE49400FCE4FB7A01F9F8121D80AF03DB
:101AEE008F8B758910121DC47F1E7E00121EF6D2BA
:091AFE00AFD2ABD28ED2BB80FE48
:101E7C00753B04C284121F2C121EA8121ECF8F3B5E
:101E8C00E53B24FE600C14600E240270EE121C91D3
:0C1E9C0080E9121B0780E4121A5E80DF50
:03000B00021C34A0
:101C3400C0E0C0D0758CFE758A0CE5A064F3601416
:101C4400E50C7010750C01750C01750C01750C0117
:101C5400B281C2ADE50C7017C3E52B951DE52A953D
:101C64001C5025B280052BE52B701D052A8019B266
:101C740080E52B152B7002152A14B52D0BE52AB51A
:0D1C84002C06C2A9C284D2ADD0D0D0E0326F
:03001B000218C9FF
:1018C900C0E0C0F0C083C082C0D075D000C000C0E5
:0D18D90001C002C003C004C005C006C00766
:1018E60075301EAE1AAF1BAB07AA06E4C39BFFE416
:1018F6009AFE74019400FDE49400FCE4FB7A01F97D
:10190600F8121D808F8DAE1AAF1BAB07AA06E4C373
:101916009BFFE49AFE74019400FDE49400FCE4FB52
:101926007A01F9F8121D80AF038F8BE50C64027003
:1019360044C3E52B951DE52A951C5017D281E53049
:10194600D394004004153080F5B280052BE52B704A
:1019560002052AD3E52B951DE52A951C4017C28161
:10196600E530D394004004153080F5B280E52B15A0
:051976002B7002152A90
:10197B00D007D006D005D004D003D002D001D000C0
:0B198B00D0D0D082D083D0F0D0E0326A
:03002B0002199621
:10199600C0E0C0F0C083C082C0D075D000C000C017
:1019A60001C002C003C004C005C006C00775BC0064
:1019B600AFBDEFFEE42519FBEE3518FAE43517F94D
:1019C600E43516F8AFBEE4FCFDFEEB2FF519EE3A52
:1019D600F518ED39F517EC38F5160526E5267002EB
:1019E6000525B5284DE525B52748E527C313FEE5AA
:1019F6002813FFEF2519FFEE3518FEED3517FDEC20
:101A06003516FCC006C007AE27AF28AB07AA06E40A
:101A1600F9F8D007D0061212A18E2E8F2F75250049
:101A260075260075190075180075170075160012D1
:101A36001609E50D44884529F5BC000000D007D0FD
:101A460006D005D004D003D002D001D000D0D0D02B
:081A560082D083D0F0D0E03211
:101F4500E4FEEEC39F5009E4FD0DBD0AFC0E80F2D0
:011F55002269
:0F1E4800121E57EA54F0FF121E57EAC454F0FF5F
:021E5700AC07D6
:101E5900E4FBECA803088002C333D8FC30E704D2C2
:101E6900868002C286C2857F04121F45D2850BBBBC
:021E790008E07F
:011E7B002244
:101F5600AA07C287D2877FF8121E487F32021F4522
:101F6600AA07C287D2877FFA121E487F32021F4510
:101F2C007F30121F567F06121F567F01121F567FDD
:091F3C000C121F567F02021F5611
:061CEA008B418A42894390
:101CF000E4F545121F56E4F545E545C395445038D3
:101D0000AB41AA42A94375F002E545A4F58285F0EE
:101D100083121238FF121F66AB41AA42A94375F025
:101D200002E545A42401F582E435F0F5831212386A
:081D3000FF121F66054580C18A
:011D38002288
:101D39008B3D8A3E893F7544087F80121CEAAB3D82
:101D4900E53F2410F9E4353EFA7544087F90121CEA
:101D5900EAAB3DE53F2420F9E4353EFA7544087FB6
:101D690088121CEAAB3DE53F2430F9E4353EFA75AB
:071D790044087F98021CEAF8
:100E6200021223E86480F8E933E83360110460F089
:100E7200ED33EC337009E8FCE9FDEAFEEBFF2204F6
:100E820060DED3EB9FEA9EE99DE8C2E78CF0C2F7F1
:100E920095F0400CE8CCF8E9CDF9EACEFAEBCFFBBD
:100EA2001211EE85D0F05804700320D5B3E8047017
:100EB200075002B2D502122D92D5EC0460F7E4CCB1
:100EC200C0E0C398F8603B94186008400DD0E0FB86
:100ED200021205E4FBFAC9FC8028E830E406E4C902
:100EE200FBE4CAFCE830E305E4C9CACBFCE85407DA
:100EF2006010F8C3E913F9EA13FAEB13FBEC13FCE5
:100F0200D8F130F52FC3E49CFCEF9BFFEE9AFEED87
:100F120099FDD0E0FBEF4E4D4C701222DB03021222
:100F22002AEC2CFCEF33FFEE33FEED33FDED30E720
:100F3200EB021205EF2BFFEE3AFEED39FDD0E0FB9E
:100F420050130BBB000302122DED13FDEE13FEEF47
:080F520013FFEC13FC02120571
:100F5A00EC4D6011E8497017ED33EC3304600DE491
:100F6A00FCFFFEFD22E933E8330470F80212231273
:100F7A0011EE58046009E4CC248150062850090275
:100F8A00122D28400302122AC0E0EB4A7044B980AD
:100F9A0006D0E0FB021219EF4E701CBD8008EBFF71
:100FAA00EAFEE9FD80EBE98DF0A4FEE5F0021043CC
:100FBA00E9CDF9EAFEEBFFEF89F0A4FCE5F0CE8972
:100FCA00F0A42EFFE435F0CD89F0A42DFEE435F02F
:100FDA008067EF4E7005BD80D780C3EF8BF0A4AC5D
:100FEA00F0EE8BF0A42CFCE435F0F8EF8AF0A42C98
:100FFA00E5F038FCE433CB8DF0A42CFCE5F03BF8AB
:10100A00EE8AF0A42CFCE5F038F8E433CF89F0A49A
:10101A002CFCE5F038CF3400CE89F0A42FFFE5F0A0
:10102A003EFEE433C98DF0A42EFEE5F039CD8AF0F8
:10103A00A42FFFE5F03EFEE43DFD33D0E0FB500770
:10104A000BBB000F02122DEC2CFCEF33FFEE33FE2C
:06105A00ED33FD0212055A
:1010600002122DEC5D046005E8590470030212239E
:101070001211EE580460F6EC4860F2EC7004FDFECC
:10108000FF22C860DB2481C85009C3986002500663
:1010900002122A9850CAF582E9294B4A7005AB82A0
:1010A00002121975F0007C1A7880C3EF9BEE9AED5E
:1010B00099400DC3EF9BFFEE9AFEED99FDE842F0DB
:1010C000DC23ACF0D0E0FFD0E0FED0E0FDAB82202E
:1010D000E7101BEB60BAEC2CFCEF33FFEE33FEEDB8
:1010E00033FD021205E803F830E705C0F075F000A3
:1010F000EF2FFFEE33FEED33FD40B830E7C280AA9C
:1011000074F8CC6480CCC86480C8F58204604FC396
:10111000EB9FF5F0EA9E42F0E99D42F0E89C45F035
:10112000603C501DE5825FFFE582D313CB5BCBF4BF
:101130002B5582FB50280ABA002409B900200880E8
:101140001DE5825BFBE582D313CF5FCFF4C3132F82
:101150005582FF50090EBE00050DBD00010CC3EB0A
:101160009FF5F0EA9E42F0E99D42F0E89C45F06070
:0911700007CC4820E701B3EC2292
:1011790075F020800E75F010800575F0087D007EF1
:10118900007F003392D530D503121333EC3340106E
:10119900EF33FFEE33FEED33FDEC33FCD5F0ED22FA
:0E11A900E5F0247EA2D513CC92E7CDCEFF2236
:1011B700EDD2E7CD33EC3392D524814006E4FFFE30
:1011C700FDFC22FCE4CFCECDCC24E0501174FF808F
:1011D700EDC3CC13CCCD13CDCE13CECF13CF04702C
:0711E700F030D5DE021333E6
:1011EE00E9D2E7C933E833F892D5EDD2E7CD33EC47
:0711FE0033FC5002B2D522C0
:10120500EC30E7100FBF000C0EBE00080DBD00044A
:101215000BEB6014A2D5EB13FCED92E7FD2274FFF6
:10122500FCFDFEFF22E480F8A2D574FF13FC7D804F
:03123500E480EF63
:03000000021BA838
:0C1BA800787FE4F6D8FD758145021BEF44
:10123800BB010CE58229F582E5833AF583E022506B
:1012480006E92582F8E622BBFE06E92582F8E222B5
:0D125800E58229F582E5833AF583E49322CF
:1012650075F008758200EF2FFFEE33FECD33CDCC40
:1012750033CCC58233C5829BED9AEC99E5829840C3
:101285000CF582EE9BFEED9AFDEC99FC0FD5F0D6A0
:10129500E4CEFBE4CDFAE4CCF9A88222B800C1B9CA
:1012A5000059BA002DEC8BF084CFCECDFCE5F0CB08
:1012B500F97818EF2FFFEE33FEED33FDEC33FCEB41
:1012C50033FB10D703994004EB99FB0FD8E5E4F9FC
:1012D500FA227818EF2FFFEE33FEED33FDEC33FCE9
:1012E500C933C910D7059BE99A4007EC9BFCE99ADD
:1012F500F90FD8E0E4C9FAE4CCFB2275F010EF2F22
:10130500FFEE33FEED33FDCC33CCC833C810D70721
:101315009BEC9AE899400AED9BFDEC9AFCE899F85C
:0E1325000FD5F0DAE4CDFBE4CCFAE4C8F922EF
:101D8000C2D5E830E70FB2D5E4C39BFBE49AFAE48E
:101D900099F9E498F8EC30E717B2D5121DB6121293
:101DA000A1E4C39BFBE49AFAE499F9E498F8800370
:101DB0001212A130D50DE4C39FFFE49EFEE49DFD09
:041DC000E49CFC2281
:0E133300C3E49FFFE49EFEE49DFDE49CFC22CB
:101BB400021E7CE493A3F8E493A34003F68001F2AD
:101BC40008DFF48029E493A3F85407240CC8C33332
:101BD400C4540F4420C8834004F456800146F6DF01
:101BE400E4800B0102040810204080901E07E47E6C
:101BF400019360BCA3FF543F30E509541FFEE493F6
:101C0400A360010ECF54C025E060A840B8E493A3BC
:101C1400FAE493A3F8E493A3C8C582C8CAC583CAE7
:101C2400F0A3C8C582C8CAC583CADFE9DEE780BE9F
:011E4700009A
:00000001FF
